:040000000200E632E2
:03000B000200ED03
:0300110002000EDC
:03000E000200C825
:20001400438920759850758DFAD28ED29922120431E582602F12043785822AE52AB52B02EE
:2000340080ECE52260FC20E7F91522E52060FC20E7F91520C2AF852A39852A2BD2AF052037
:20005400052180CA752B0080C51204C9E582602F1204D485822CE52CB52D0280ECE522607D
:20007400FC20E7F91522E52060FC20E7F91520C2AF852C39852C2DD2AF0520052180CA75DF
:200094002D0080C512001412036BE58260F9E52160FC20E7F91521E52060FC20E7F9152046
:2000B400C2AFE53960068539821203CED2AF0520052280D312036F1204C37520017521006B
:1D00D40075220190002212011D90005D12011D0200980200F12222222202025832D5
:2000F10075350075340075890075A882D28C7538019000C812011D858234E5342430F98743
:2001110081D0D0D083D082D0F0D0E022740FB535047582FF22C2AF858136E53520E00843DB
:2001310035017537008025E53520E1084335027537018018E53520E2084335047537028077
:200151000BE53520E306433508753703E537C454F0FF243FF581E582C0E0E583C0E07400B2
:20017100C0E0C0E0C0E0C0E0E537FFC40354F8F5D0C0D0E5372430F8A681853681D2AF859A
:200191003782227F0110AF027F00C0E0C0F0C082C083C0D0E5342430F8A681E53570030233
:2001B1000253E5347024E53530E106753401020242E53530E206753402020242E53520E3CB
:2001D100030202427534030202427401B5341EE53530E2057534028058E53530E3057534C8
:2001F10003804EE53530E04975340080447402B5341EE53530E3057534038035E53530E003
:2002110005753400802BE53530E12675340180217403B5341CE53530E0057534008012E50D
:200231003530E1057534018008E53530E203753402E5342430F98781D0D0D083D082D0F0E3
:20025100D0E0EF1392AF22C2AFC0E0C0F0C082C083C0D0E5342430F8A68174356023853431
:2002710090E53470197401B53808753401753800800FE538700B75340275380180037534CE
:2002910000E5342430F98781D0D0D083D082D0F0D0E0D2AF32227F0110AF027F00AE348E25
:2002B100F005F07401800225E0D5F0FBF4FEAD355DF535E5357003020366E534701FE53577
:2002D10030E106753401020355E53530E2057534028071E53530E36C75340380677401B5CF
:2002F100341EE53530E2057534028058E53530E305753403804EE53530E04975340080445B
:200311007402B5341EE53530E3057534038035E53530E005753400802BE53530E12675343F
:200331000180217403B5341CE53530E0057534008012E53530E1057534018008E53530E296
:1A03510003753402E5342430F98781D0D0D083D082D0F0D0E0EF1392AF225C
:20036B00853D82221203A475820712038275820F120382753D0122AF82753D0074F05FF5B1
:20038B0090D292C292EFC454F0F590D292C29275822812042D753D0122753D00759020D2F6
:2003AB0092C29275822812042DD292C29275822812042DD297D292C29275822812042D75D8
:2003CB003D0122AF82753D0074F05F4408F590D293D292C292EFC454F0FF74084FF590D206
:2003EB0092C29275822812042D753D0122AD82AE83AFF08D828E838FF0120550FCA3AD8202
:20040B00AE83EC601C8D828E838FF0120550F582C007C006C0051203CED005D006D0078084
:06042B00D222D582FD2261
:20043100E5A0F4F58222AEA07F00EEF4FEEFF4EE30E70475823722AEA07F00EEF4FEEFF420
:20045100EE30E60475823622AEA07F00EEF4FEEFF4EE30E50475823522AEA07F00EEF4FEA2
:20047100EFF4EE30E40475823422AEA07F00EEF4FEEFF4EE30E30475823322AEA07F00EE99
:20049100F4FEEFF4EE30E20475823222AEA07F00EEF4FEEFF4EE30E10475823122AEA07F7D
:1204B10000EEF4FEEFF4EE30E004758230227582002212
:2004C300D2B37580F0227580F0A2B3B3E433F582227580F774B7B580047582312274D7B556
:2004E30080047582322274E7B58004758233227580FB74BBB580047582342274DBB580041D
:200503007582352274EBB58004758236227580FD74BDB580047582372274DDB58004758276
:20052300382274EDB58004758239227580FE74BEB5800475822A2274DEB5800475823022FD
:0D05430074EEB580047582232275820022BB
:1C05500020F71430F6148883A88220F507E6A88375830022E280F7E49322E022BA
:00000001FF
