:04000000020089323F
:03000B0002008D63
:0300110002000EDC
:03000E0002007D70
:20001400438920759850758DFAD28ED29922753A417F0110AF027F00E5397028853A3875C8
:200034003901AD3AFE74C02DF58274FF3EF58375081A8E09C0071203CEAD82AE83D0077409
:20005400412DF53AEF1392AF80C71200147F0110AF027F00E539600B85389910990280FB7A
:20007400753900EF1392AF80E47539009000221200BD02005E020094220201F8322222223D
:2000940075350075340075890075A882D28C90007D1200BD858234E5342430F98781D0D0D9
:2000B400D083D082D0F0D0E022740FB535047582FF22C2AF858136E53520E00843350175AF
:2000D40037008025E53520E1084335027537018018E53520E208433504753702800BE5355B
:2000F40020E306433508753703E537C454F0FF243FF581E582C0E0E583C0E07400C0E0C0D5
:20011400E0C0E0C0E0E537FFC40354F8F5D0C0D0E5372430F8A681853681D2AF853782227C
:200134007F0110AF027F00C0E0C0F0C082C083C0D0E5342430F8A681E53570030201F3E592
:20015400347024E53530E1067534010201E2E53530E2067534020201E2E53520E30302011E
:20017400E27534030201E27401B5341EE53530E2057534028058E53530E305753403804E1C
:20019400E53530E04975340080447402B5341EE53530E3057534038035E53530E005753483
:2001B40000802BE53530E12675340180217403B5341CE53530E0057534008012E53530E1D3
:2001D400057534018008E53530E203753402E5342430F98781D0D0D083D082D0F0D0E0EFE8
:2001F4001392AF227F0110AF027F00C0E0C0F0C082C083C0D0E5342430F8A681E535700337
:200214000202A6E5347024E53530E1067534010202A6E53530E2067534020202A6E535202D
:20023400E3030202A67534030202A67401B5341EE53530E2057534028058E53530E30575ED
:200254003403804EE53530E04975340080447402B5341EE53530E3057534038035E535304B
:20027400E005753400802BE53530E12675340180217403B5341CE53530E0057534008012AF
:20029400E53530E1057534018008E53530E203753402E5342430F98781D0D0D083D082D08B
:2002B400F0D0E0EF1392AF32227F0110AF027F00AE348EF005F07401800225E0D5F0FBF42E
:2002D400FEAD355DF535E535700302037CE534701FE53530E10675340102036BE53530E276
:2002F400057534028071E53530E36C75340380677401B5341EE53530E2057534028058E508
:200314003530E305753403804EE53530E04975340080447402B5341EE53530E305753403C7
:200334008035E53530E005753400802BE53530E12675340180217403B5341CE53530E0052A
:200354007534008012E53530E1057534018008E53530E203753402E5342430F98781D0D004
:0D037400D083D082D0F0D0E0EF1392AF2202
:20038100E508450960467A01E50825E0F508E509334012F509E5829508E583950940030A49
:2003A10080E6C3E50913F509E50813F508C3E5829508F5F0E58395094005F58385F082C3EE
:0D03C100E50913F509E50813F508DAE12256
:2003CE00C2D5E58330E70DD2D5E4C39582F582E49583F583E50930E70BE4C39508F508E467
:1603EE009509F50912038130D50BE4C39582F582E49583F58322EC
:00000001FF
