:040000000201423285
:03000B00020146A9
:0300110002000EDC
:03000E00020124C8
:20001400438920759850758DFAD28ED29922753B41E52260FC20E7F91522E52060FC20E7A7
:20003400F915207F0110AF027F00E539243DF8A63B7402B539057539008006E539FE04F5B4
:2000540039AD3B7E0074C02DF58274FF3EF58375081A8E09C007120414AD82AE83D0077422
:20007400412DF53BEF1392AF0520052180A3753C30E52260FC20E7F91522E52060FC20E73A
:20009400F915207F0110AF027F00E539243DF8A63C7402B539057539008006E539FE04F553
:2000B40039AD3C7E0074D12DF58274FF3EF58375080A8E09C007120414AD82AE83D00774C0
:2000D400302DF53CEF1392AF0520052180A3120014E52160FC20E7F91521E52060FC20E7A7
:2000F400F915203099FD7F0110AF027F00E53A243DF98799C2997402B53A05753A008006A5
:20011400E53AFE04F53AEF1392AF0520052280C1752001752100752203753A0075390090F8
:1901340000221201799000821201790200E202014D220202B432222222C0
:20014D0075350075340075890075A882D28C753801900124120179858234E5342430F9872D
:20016D0081D0D0D083D082D0F0D0E022740FB535047582FF22C2AF858136E53520E008437F
:20018D0035017537008025E53520E1084335027537018018E53520E208433504753702801B
:2001AD000BE53520E306433508753703E537C454F0FF243FF581E582C0E0E583C0E0740056
:2001CD00C0E0C0E0C0E0C0E0E537FFC40354F8F5D0C0D0E5372430F8A681853681D2AF853E
:2001ED003782227F0110AF027F00C0E0C0F0C082C083C0D0E5342430F8A681E535700302D7
:20020D0002AFE5347024E53530E10675340102029EE53530E20675340202029EE53520E35A
:20022D000302029E75340302029E7401B5341EE53530E2057534028058E53530E3057534B3
:20024D0003804EE53530E04975340080447402B5341EE53530E3057534038035E53530E0A6
:20026D0005753400802BE53530E12675340180217403B5341CE53530E0057534008012E5B1
:20028D003530E1057534018008E53530E203753402E5342430F98781D0D0D083D082D0F087
:2002AD00D0E0EF1392AF22C2AFC0E0C0F0C082C083C0D0E5342430F8A681743560238534D5
:2002CD0090E53470197401B53808753401753800800FE538700B7534027538018003753472
:2002ED0000E5342430F98781D0D0D083D082D0F0D0E0D2AF32227F0110AF027F00AE348EC9
:20030D00F005F07401800225E0D5F0FBF4FEAD355DF535E53570030203C2E534701FE535BE
:20032D0030E1067534010203B1E53530E2057534028071E53530E36C75340380677401B516
:20034D00341EE53530E2057534028058E53530E305753403804EE53530E0497534008044FE
:20036D007402B5341EE53530E3057534038035E53530E005753400802BE53530E1267534E3
:20038D000180217403B5341CE53530E0057534008012E53530E1057534018008E53530E23A
:1A03AD0003753402E5342430F98781D0D0D083D082D0F0D0E0EF1392AF2200
:2003C700E508450960467A01E50825E0F508E509334012F509E5829508E583950940030A03
:2003E70080E6C3E50913F509E50813F508C3E5829508F5F0E58395094005F58385F082C3A8
:0D040700E50913F509E50813F508DAE1220F
:20041400C2D5E58330E70DD2D5E4C39582F582E49583F583E50930E70BE4C39508F508E420
:160434009509F5091203C730D50BE4C39582F582E49583F583225F
:00000001FF
