:040000000202BB320B
:03000B000202C22C
:0300110002000EDC
:03000E000202A942
:20001400E53B60030200B7E53360FC20E7F91533E53260FC20E7F9153275080074FE2508FE
:2000340050030200ADE508030354C0FE74405E4480F5821204ECE5082508FE75090074F15B
:2000540025094050AC3DAB08ECB50309E50970057B01FC8032EE2434F9870209870719740C
:200074000FC39509FD8DF005F08007C3EF13FFEA13FAD5F0F6EA30E0067D027F0080047D91
:20009400207F008D038F048B82C006120538D006050980AA05080200300532053312039502
:2000B4000200147F00BF020050318F06EE030354C0FE74405E4480F582C0071204ECD007CD
:2000D4007E00BE0F005011758220C007C006120538D006D0070E80EA0F80CA750A53750B9D
:2000F40063750C6F750D72750E65750F3A7510207511007582801204EC7D0A7E007F408D0A
:20011400828E838FF01207E4FC60188C82C007C006C005120538D005D006D0070DBD00DF6E
:200134000E80DCAE397F008E828F831205AF80FEE53D25E02434F9870609E7235401FE8E7C
:20015400822212062BE582700512039580F412063885822FE53C701F74D0252F500FE52F69
:2001740024C64009E52FFF24D0F53880347423B52F2F753C01802AAF2FBF32028005BF38FD
:20019400208010E53360FC20E7F91533753D000533800EE53360FC20E7F91533753D0105F3
:2001B40033120144E5826003753B0112062BE582609012039580F4AE82AF83EE4F60071E4A
:2001D400BEFF011F80F522E53C60FCE53B70F8E53260FC20E7F91532E5342534FEE535331B
:2001F400FFE5352354017D002EFEED3FFF8E348F35E53625E0FEE53733FFE5372354012ED2
:20021400FEED3FFF8E368F37120144E5826005753B018019E534035480235401FEE5360326
:200234005480235401FD7F002E2539F5390532AE387F00740AC39EF51AE49FF51B90012C4E
:200254001207511201CB0201DB75126E751308751480758208120566751276751308751444
:2002740080758210120566753800753900753C00753B00753D0075341075350075368675EF
:200294003702753201753301221204D902062512029D02025D1202A39001DB1202F39001B5
:1202B400561202F30200140202C62222222202046032DB
:10086E000705060714170E0A04051515160C0404C1
:2002C600752900752A0075890075A882D28C9002A91202F3752800E528242488F0F8868135
:2002E600A8F0D0D0D083D082D0F0D0E022D310AF01C3C0D074FD252950067582FF02039003
:2003060075230074FD2523403EAF238FF005F07F017E008006EF2FFFEE33FED5F0F7AC2A70
:200326007D00EC5207ED5206EF4E7014AF238FF005F07401800225E0D5F0FBFF422A8007FB
:20034600E52304F52380BCE52904F529E5232404C454F0FF14F52C85812B852C81C082C036
:2003660083758200C082C082C082C082E523FFC40354F8F52DC02DE5232424FF8F2DE8A831
:200386002DA681F8852B81852382D0D092AF22C2AFC0E0C0F0C082C083C0D074242528886A
:2003A600F0F8A68188838982C083C0820528A828B8030040037528008528F005F07583016A
:2003C600758200800BE5832583F583E58233F582D5F0F2A82A7900E85283E95282E58345D3
:2003E6008260C9D082D083A883A982E528242488F0F88681A8F0D0D0D083D082D0F0D0E038
:20040600D2AF22C2AFAF288FF005F07F017E008006EF2FFFEE33FED5F0F7AC2A7D00EC526A
:2004260007ED5206EF4E6012AF288FF005F07401800225E0D5F0FBFF622A752800E529146A
:20044600F529E528242488F0F88681A8F0D0D0D083D082D0F0D0E0D2AF22C2AFC0E0C0F0FB
:20046600C082C083C0D07424252888F0F8A68188838982C083C0820528A828B8030040034F
:200486007528008528F005F0758301758200800BE5832583F583E58233F582D5F0F2A82A8A
:2004A6007900E85283E95282E583458260C9D082D083A883A982E528242488F0F88681A87C
:0F04C600F0D0D0D083D082D0F0D0E0D2AF3222AD
:2004D500853A822212050E7582071204EC75820F1204EC753A0122AF82753A0074F05FF50D
:2004F50090D292C292EFC454F0F590D292C292758228120562753A0122753A00759020D25B
:2005150092C292758228120562D292C292758228120562D297D292C29275822812056275CA
:200535003A0122AF82753A0074F05F4408F590D293D292C292EFC454F0FF74084FF590D2A0
:2005550092C292758228120562753A0122D582FD22AF82753A00743F5F4440F5821204ECD1
:200575007E007F00C3EE9408EF648094805027EE2512FBEF3513FCAD148B828C838DF012FF
:2005950007E4F582C007C006120538D006D0070EBE00D10F80CE753A0122AE82E583FF30C8
:2005B500E71575822DC007C006120538D006D007C3E49EFEE49FFF7D00ED2415F90D751A80
:2005D5000A751B008E828F83C007C006C005C001120800AB82D001D005D006D00774302BCE
:2005F500F7751A0A751B008E828F83C005120836AE82AF83D005EE4F70BF8D07EF60101FDA
:10061500EF2415F98782C007120538D00780ED222F
:20062500D2B37580F0227580F0A2B3B39200E433F582227580F774B7B580047582312274EC
:20064500D7B580047582322274E7B58004758233227580FB74BBB580047582342274DBB5B1
:2006650080047582352274EBB58004758236227580FD74BDB580047582372274DDB5800486
:200685007582382274EDB58004758239227580FE74BEB5800475822A2274DEB580047582F5
:0F06A500302274EEB58004758223227582002204
:2006B40074FFB5A003D38001C3B39201E433F58222AEA07F00EEF4FEEFF4EE30E7047582BE
:2006D4003722AEA07F00EEF4FEEFF4EE30E60475823622AEA07F00EEF4FEEFF4EE30E5042F
:2006F40075823522AEA07F00EEF4FEEFF4EE30E40475823422AEA07F00EEF4FEEFF4EE3007
:20071400E30475823322AEA07F00EEF4FEEFF4EE30E20475823222AEA07F00EEF4FEEFF423
:1D073400EE30E10475823122AEA07F00EEF4FEEFF4EE30E004758230227582002267
:1D075100E582851AF0A4C582C0F0851BF0A4D0F025F0C583851AF0A42583F5832234
:20076E00E51A451B60467A01E51A25E0F51AE51B334012F51BE582951AE583951B40030AC8
:20078E0080E6C3E51B13F51BE51A13F51AC3E582951AF5F0E583951B4005F58385F082C391
:0D07AE00E51B13F51BE51A13F51ADAE1221D
:2007BB007A10E4FBFCE58225E0F582E58333F583EB33FBEC33FCEB951AF5F0EC951B40062E
:0907DB00FCABF0438201DADD22DF
:1C07E40020F71430F6148883A88220F507E6A88375830022E280F7E49322E02224
:20080000C2D5E58330E70DD2D5E4C39582F582E49583F583E51B30E70BE4C3951AF51AE4FA
:16082000951BF51B12076E30D50BE4C39582F582E49583F58322A0
:20083600C2D5E58330E70DD2D5E4C39582F582E49583F583E51B30E70DB2D5E4C3951AF539
:180856001AE4951BF51B1207BB30D50BE4C39582F582E49583F583221D
:00000001FF
