:040000000200DC32EC
:03000B000200E010
:0300110002000EDC
:03000E000200C429
:20001400438920759850758DFAD28ED29922753A41E52260FC20E7F91522E52060FC20E7A8
:20003400F915207F0110AF027F00E538243BF8A63A7402B538057538008006E538FE04F5BB
:2000540038AD3A7E0074C02DF58274FF3EF58375081A8E09C007120407AD82AE83D0077431
:20007400412DF53AEF1392AF0520052180A3120014E52160FC20E7F91521E52060FC20E7F8
:20009400F915203099FD7F0110AF027F00E539243BF98799C2997402B5390575390080060A
:2000B400E539FE04F539EF1392AF0520052280C1752001752100752203753900753800905D
:1300D40000221201100200820200E72202023E322222226B
:2000E70075350075340075890075A882D28C9000C4120110858234E5342430F98781D0D0EB
:20010700D083D082D0F0D0E022740FB535047582FF22C2AF858136E53520E008433501755B
:2001270037008025E53520E1084335027537018018E53520E208433504753702800BE53507
:2001470020E306433508753703E537C454F0FF243FF581E582C0E0E583C0E07400C0E0C081
:20016700E0C0E0C0E0E537FFC40354F8F5D0C0D0E5372430F8A681853681D2AF8537822229
:20018700C0E0C0F0C082C083C0D0E5342430F8A681E535700122E5347024E53530E1067567
:2001A700340102022CE53530E20675340202022CE53520E30302022C75340302022C740125
:2001C700B5341EE53530E2057534028058E53530E305753403804EE53530E0497534008015
:2001E700447402B5341EE53530E3057534038035E53530E005753400802BE53530E126755B
:20020700340180217403B5341CE53530E0057534008012E53530E1057534018008E535306F
:20022700E203753402E5342430F98781D0D0D083D082D0F0D0E0227F0110AF027F00C0E082
:20024700C0F0C082C083C0D0E5342430F8A681E53570030202ECE5347024E53530E1067576
:2002670034010202ECE53530E2067534020202ECE53520E3030202EC7534030202EC740164
:20028700B5341EE53530E2057534028058E53530E305753403804EE53530E0497534008054
:2002A700447402B5341EE53530E3057534038035E53530E005753400802BE53530E126759A
:2002C700340180217403B5341CE53530E0057534008012E53530E1057534018008E53530AF
:2002E700E203753402E5342430F98781D0D0D083D082D0F0D0E0EF1392AF3222AF348FF04B
:2003070005F07401800225E0D5F0FBF4FFAE355EF535E535700122E534701FE53530E10641
:200327007534010203A8E53530E2057534028071E53530E36C75340380677401B5341EE505
:200347003530E2057534028058E53530E305753403804EE53530E04975340080447402B510
:20036700341EE53530E3057534038035E53530E005753400802BE53530E126753401802172
:200387007403B5341CE53530E0057534008012E53530E1057534018008E53530E203753436
:1303A70002E5342430F98781D0D0D083D082D0F0D0E022FC
:2003BA00E508450960467A01E50825E0F508E509334012F509E5829508E583950940030A10
:2003DA0080E6C3E50913F509E50813F508C3E5829508F5F0E58395094005F58385F082C3B5
:0D03FA00E50913F509E50813F508DAE1221D
:20040700C2D5E58330E70DD2D5E4C39582F582E49583F583E50930E70BE4C39508F508E42D
:160427009509F5091203BA30D50BE4C39582F582E49583F5832279
:00000001FF
