:040000000206E132E1
:03000B000206E802
:0300110002000EDC
:03000E00020647A0
:20001400E52360030208A2120B5BE582601D120B6185823FE53EB53F0280E5E53E70E1C2E1
:20003400AF853F39853F3ED2AF80D5120BF3E58270030200CD120BFE85823FE53EB53F02F5
:2000540080BEE53E70BAC2AF853F397432B5392FE520030354C0FF74804FF58212099B75CD
:2000740082201209E7752000E520030354C0FF74804FF58212099B7582001209E780327486
:2000940038B5392DE520030354C0FF74804FF58212099B7582201209E7752001E5200303B1
:2000B40054C0FF74804FF58212099B7582001209E7853F3ED2AF020014753E00020014E569
:2000D4002360030208A2E53A60FC20E7F9153AC2AFE526600302020575260174804529F535
:2000F4008212099B7582201209E77440252A4480F58212099B7582201209E77480452BF535
:200114008212099B7582201209E77440252C4480F58212099B7582201209E77480452DF510
:200134008212099B7582201209E7E523600122E529700575290F8006E529FF14F529E52ACB
:200154007005752A0F8006E52AFF14F52AE52B7005752B0F8006E52BFF14F52BE52C70051E
:20017400752C0F8006E52CFF14F52CE52D7005752D0F8006E52DFF14F52DE523600122E57B
:200194002870167409B52E0B752E00E527FF04F5278006E52EFF04F52E75280174804529A5
:2001B400F58212099B7582011209E77440252A4480F58212099B7582011209E77480452BB2
:2001D400F58212099B7582011209E77440252C4480F58212099B7582011209E77480452D8E
:2001F400F58212099B7582011209E775820212099BD2AF053A12078F0200D34389207598DF
:2002140050758DFAD28ED299752000752E00752700752300752904752A06752B08752C0CAB
:20023400752D0E75260075280175828012099B7582001209E774804529F58212099B758215
:20025400011209E77440252A4480F58212099B7582011209E77480452BF58212099B758211
:20027400011209E77440252C4480F58212099B7582011209E77480452DF58212099B7582ED
:20029400011209E7752F0075240022E523600122E53A60FC20E7F9153AE52660037526008A
:2002B400053A22E523600122852020E52060097401B520012275200022752400752500E5CF
:2002D40024030354C0FFE5252FFF74804FF58212099B7582201209E7E525FF04F525741061
:2002F400B525DC752500E524FF04F5247402B524CE75240075250075828012099B75254717
:200314008525821209E775828112099B7525618525821209E775828212099B75256D852564
:20033400821209E775828312099B7525658525821209E775828412099B752520852582129F
:2003540009E775828512099B75256F8525821209E775828612099B7525768525821209E7BF
:2003740075828712099B7525658525821209E775828812099B7525728525821209E77582A2
:20039400C012099B7525538525821209E77582C112099B7525638525821209E77582C21254
:2003B400099B75256F8525821209E77582C312099B7525728525821209E77582C412099B33
:2003D4007525658525821209E77582C512099B7525208525821209E77582C612099B752575
:2003F4003A8525821209E77582C712099B7525208525821209E77582C812099BAE277F005C
:20041400750B0A8F0C8E828F83120CE3AE8274302EF5258525821209E77582C912099BAE12
:200434002E7F00750B0A8F0C8E828F83120CE3AE8274302EF5258525821209E77582281238
:200454000A4675820202099B120966E58260F912029F752801C2AF7524007405B524028029
:200474003DE5242429F9E7702DAE24FFAC20FDEEC39CF582EF9DF583750B028F0C120CE3D8
:20049400E5828583F045F07006752301D2AF22E5286003752800E524FF04F52480BC7524FB
:2004B40000E52F25E0FF7414C39FF5257582FF120A467582FF120A467582FF120A4675820D
:2004D400FF120A467582FF120A467582FF120A467582FF120A467582FF120A467582FF123F
:2004F4000A467582FF120A461202B7120BF3E582700302058C120BFE85823FE53EB53F037D
:2005140002058FE53E600302058F853F397432B5392FE520030354C0FF74804FF582120962
:200534009B7582201209E7752000E520030354C0FF74804FF58212099B7582001209E78057
:20055400327438B5392DE520030354C0FF74804FF58212099B7582201209E7752001E5204C
:20057400030354C0FF74804FF58212099B7582001209E7853F3E8003753E00753C00740583
:20059400B53C02803DE53C2429F9E7702DAE3CFFAC20FDEEC39CF582EF9DF583750B028F21
:2005B4000C120CE3E5828583F045F07006752301D2AF22E5286003752800E53CFF04F53C72
:2005D40080BC7582FF120A467582FF120A467582FF120A467582FF120A467582FF120A4613
:2005F4007582FF120A467582FF120A467582FF120A467582FF120A467582FF120A46E52426
:2006140004F524AE257F00AC247D00EEC39CFEEF9DFF4E60030204C0D2AF7401B52302806D
:200634000302045C75820112099B75822C120A460208A212096A120BED753A01753B001261
:20065400020F120B5BE582601A120B6185823FE53EB53F02804EE53E704AE52F7046853F06
:20067400248041120BF3E5826037120BFE85823FE53EB53F02802DE53E7029E52F701D747B
:20069400CF25245014E52424C6400E7423B53F09E524FF24D0F52F8003853F24853F3E80E8
:2006B40003753E00E52F609A900014120718E52370069000D3120718E523700312045C127C
:1806D40002CD752300752E0075270080FE0206EC2222222202085332DF
:2006EC0075350075340075890075A882D28C753801900647120718858234E5342430F987BC
:20070C0081D0D0D083D082D0F0D0E022740FB535047582FF22C2AF858136E53520E00843DA
:20072C0035017537008025E53520E1084335027537018018E53520E2084335047537028076
:20074C000BE53520E306433508753703E537C454F0FF243FF581E582C0E0E583C0E07400B1
:20076C00C0E0C0E0C0E0C0E0E537FFC40354F8F5D0C0D0E5372430F8A681853681D2AF8599
:20078C003782227F0110AF027F00C0E0C0F0C082C083C0D0E5342430F8A681E53570030232
:2007AC00084EE5347024E53530E10675340102083DE53530E20675340202083DE53520E3C7
:2007CC000302083D75340302083D7401B5341EE53530E2057534028058E53530E3057534C5
:2007EC0003804EE53530E04975340080447402B5341EE53530E3057534038035E53530E002
:20080C0005753400802BE53530E12675340180217403B5341CE53530E0057534008012E50C
:20082C003530E1057534018008E53530E203753402E5342430F98781D0D0D083D082D0F0E2
:20084C00D0E0EF1392AF22C2AFC0E0C0F0C082C083C0D0E5342430F8A68174356023853430
:20086C0090E53470197401B53808753401753800800FE538700B75340275380180037534CD
:20088C0000E5342430F98781D0D0D083D082D0F0D0E0D2AF32227F0110AF027F00AE348E24
:2008AC00F005F07401800225E0D5F0FBF4FEAD355DF535E5357003020961E534701FE53575
:2008CC0030E106753401020950E53530E2057534028071E53530E36C75340380677401B5CD
:2008EC00341EE53530E2057534028058E53530E305753403804EE53530E04975340080445A
:20090C007402B5341EE53530E3057534038035E53530E005753400802BE53530E12675343E
:20092C000180217403B5341CE53530E0057534008012E53530E1057534018008E53530E295
:1A094C0003753402E5342430F98781D0D0D083D082D0F0D0E0EF1392AF225B
:20096600853D82221209BD75820712099B75820F12099B75081975090D750A80758200129A
:200986000A4A75082175090D750A80758208120A4A753D0122AF82753D0074F05FF590D29E
:2009A60092C292EFC454F0F590D292C292758228120A46753D0122753D00759020D292C2C4
:2009C60092758228120A46D292C292758228120A46D297D292C292758228120A46753D0170
:2009E60022AF82753D0074F05F4408F590D293D292C292EFC454F0FF74084FF590D292C2CF
:200A060092758228120A46753D0122AD82AE83AFF08D828E838FF0120CC7FCA3AD82AE8366
:200A2600EC601C8D828E838FF0120CC7F582C007C006C0051209E7D005D006D00780D22203
:200A4600D582FD22AF8274404FF58212099BAD08AE09AF0A8D828E838FF0120CC7F582C0D9
:200A660007C006C0051209E7D005D006D00774012DFAE43EFB8F048A828B838CF0120CC793
:200A8600F582C007C006C0051209E7D005D006D00774022DFAE43EFB8F048A828B838CF020
:200AA600120CC7F582C007C006C0051209E7D005D006D00774032DFAE43EFB8F048A828B19
:200AC600838CF0120CC7F582C007C006C0051209E7D005D006D00774042DFAE43EFB8F0490
:200AE6008A828B838CF0120CC7F582C007C006C0051209E7D005D006D00774052DFAE43E66
:200B0600FB8F048A828B838CF0120CC7F582C007C006C0051209E7D005D006D00774062DD2
:200B2600FAE43EFB8F048A828B838CF0120CC7F582C007C006C0051209E7D005D006D0073D
:150B460074072DFDE43EFE8D828E838FF0120CC7F5820209E7E8
:100D19000705060714170E0A04051515160C040411
:200B5B00E5A0F4F58222AEA07F00EEF4FEEFF4EE30E70475823722AEA07F00EEF4FEEFF4EF
:200B7B00EE30E60475823622AEA07F00EEF4FEEFF4EE30E50475823522AEA07F00EEF4FE71
:200B9B00EFF4EE30E40475823422AEA07F00EEF4FEEFF4EE30E30475823322AEA07F00EE68
:200BBB00F4FEEFF4EE30E20475823222AEA07F00EEF4FEEFF4EE30E10475823122AEA07F4C
:120BDB0000EEF4FEEFF4EE30E0047582302275820022E1
:200BED00D2B37580F0227580F0A2B3B3E433F582227580F774B7B580047582312274D7B525
:200C0D0080047582322274E7B58004758233227580FB74BBB580047582342274DBB58004EB
:200C2D007582352274EBB58004758236227580FD74BDB580047582372274DDB58004758245
:200C4D00382274EDB58004758239227580FE74BEB5800475822A2274DEB5800475823022CC
:0D0C6D0074EEB5800475822322758200228A
:200C7A00E50B450C60467A01E50B25E0F50BE50C334012F50CE582950BE583950C40030A2F
:200C9A0080E6C3E50C13F50CE50B13F50BC3E582950BF5F0E583950C4005F58385F082C3DA
:0D0CBA00E50C13F50CE50B13F50BDAE12248
:1C0CC70020F71430F6148883A88220F507E6A88375830022E280F7E49322E0223C
:200CE300C2D5E58330E70DD2D5E4C39582F582E49583F583E50C30E70BE4C3950BF50BE440
:160D0300950CF50C120C7A30D50BE4C39582F582E49583F58322C5
:00000001FF
