:0300000002007586
:03000600020003F2
:030003000200698F
:20000900758920759850758DFAD28ED29922753A41E539600512010C80F7853A38753901C4
:2000290012010CAE3A7F0074C02EF58274FF3FF58375081A8F091202C7AE82AF8374412EDF
:20004900F53A80CD120009E539700512010C80F785389910990280FB75390012010C80E727
:1300690075390190001712009D02004D02007C222222222A
:20007C0075350075340090006912009D858234E5342430F98781D0D0D083D082D0F0D0E00B
:20009C0022740FB535047582FF22858136E53520E0084335017537008025E53520E108430B
:2000BC0035027537018018E53520E208433504753702800BE53520E306433508753703E598
:2000DC0037C454F0FF243FF581C082C0837400C0E0C0E0C0E0C0E0E537FFC40354F8F5D081
:2000FC00C0D0E5372430F8A68185368185378222C0E0C0F0C082C083C0D0E5342430F8A6B9
:20011C0081E535700122E5347024E53530E1067534010201B1E53530E2067534020201B1C8
:20013C00E53520E3030201B17534030201B17401B5341EE53530E2057534028058E53530F5
:20015C00E305753403804EE53530E04975340080447402B5341EE53530E305753403803531
:20017C00E53530E005753400802BE53530E12675340180217403B5341CE53530E0057534F0
:20019C00008012E53530E1057534018008E53530E203753402E5342430F98781D0D0D08314
:2001BC00D082D0F0D0E022AF348FF005F07401800225E0D5F0FBF4FFAE355EF535E5357044
:2001DC000122E534701FE53530E106753401020268E53530E2057534028071E53530E36C8B
:2001FC0075340380677401B5341EE53530E2057534028058E53530E305753403804EE5355A
:20021C0030E04975340080447402B5341EE53530E3057534038035E53530E0057534008094
:20023C002BE53530E12675340180217403B5341CE53530E0057534008012E53530E1057550
:1E025C0034018008E53530E203753402E5342430F98781D0D0D083D082D0F0D0E022A8
:20027A00E508450960467A01E50825E0F508E509334012F509E5829508E583950940030A51
:20029A0080E6C3E50913F509E50813F508C3E5829508F5F0E58395094005F58385F082C3F6
:0D02BA00E50913F509E50813F508DAE1225E
:2002C700C2D5E58330E70DD2D5E4C39582F582E49583F583E50930E70BE4C39508F508E46F
:1602E7009509F50912027A30D50BE4C39582F582E49583F58322FC
:00000001FF
